{
  "contractName": "Toolkit",
  "abi": [
    {
      "constant": true,
      "inputs": [
        {
          "name": "",
          "type": "uint256"
        }
      ],
      "name": "hashes",
      "outputs": [
        {
          "name": "part1",
          "type": "bytes32"
        },
        {
          "name": "part2",
          "type": "bytes32"
        }
      ],
      "payable": false,
      "stateMutability": "view",
      "type": "function"
    },
    {
      "constant": true,
      "inputs": [],
      "name": "owner",
      "outputs": [
        {
          "name": "",
          "type": "address"
        }
      ],
      "payable": false,
      "stateMutability": "view",
      "type": "function"
    },
    {
      "inputs": [],
      "payable": false,
      "stateMutability": "nonpayable",
      "type": "constructor"
    },
    {
      "constant": false,
      "inputs": [
        {
          "name": "_part1",
          "type": "bytes32"
        },
        {
          "name": "_part2",
          "type": "bytes32"
        }
      ],
      "name": "add",
      "outputs": [],
      "payable": false,
      "stateMutability": "nonpayable",
      "type": "function"
    },
    {
      "constant": true,
      "inputs": [
        {
          "name": "_part1",
          "type": "bytes32"
        },
        {
          "name": "_part2",
          "type": "bytes32"
        }
      ],
      "name": "validate",
      "outputs": [
        {
          "name": "",
          "type": "bool"
        }
      ],
      "payable": false,
      "stateMutability": "view",
      "type": "function"
    }
  ],
  "bytecode": "0x608060405234801561001057600080fd5b50336000806101000a81548173ffffffffffffffffffffffffffffffffffffffff021916908373ffffffffffffffffffffffffffffffffffffffff160217905550610430806100606000396000f300608060405260043610610062576000357c0100000000000000000000000000000000000000000000000000000000900463ffffffff16806341f23c4714610067578063501895ae146100be5780638da5cb5b14610116578063d1de592a1461016d575b600080fd5b34801561007357600080fd5b506100a4600480360381019080803560001916906020019092919080356000191690602001909291905050506101ac565b604051808215151515815260200191505060405180910390f35b3480156100ca57600080fd5b506100e9600480360381019080803590602001909291905050506102c0565b60405180836000191660001916815260200182600019166000191681526020019250505060405180910390f35b34801561012257600080fd5b5061012b6102f3565b604051808273ffffffffffffffffffffffffffffffffffffffff1673ffffffffffffffffffffffffffffffffffffffff16815260200191505060405180910390f35b34801561017957600080fd5b506101aa60048036038101908080356000191690602001909291908035600019169060200190929190505050610318565b005b6000806101b76103e4565b3373ffffffffffffffffffffffffffffffffffffffff166000809054906101000a900473ffffffffffffffffffffffffffffffffffffffff1673ffffffffffffffffffffffffffffffffffffffff1614151561021257600080fd5b600091505b6001805490508210156102b35760018281548110151561023357fe5b906000526020600020906002020160408051908101604052908160008201546000191660001916815260200160018201546000191660001916815250509050846000191681600001516000191614801561029857508360001916816020015160001916145b156102a657600192506102b8565b8180600101925050610217565b600092505b505092915050565b6001818154811015156102cf57fe5b90600052602060002090600202016000915090508060000154908060010154905082565b6000809054906101000a900473ffffffffffffffffffffffffffffffffffffffff1681565b3373ffffffffffffffffffffffffffffffffffffffff166000809054906101000a900473ffffffffffffffffffffffffffffffffffffffff1673ffffffffffffffffffffffffffffffffffffffff1614151561037357600080fd5b600160408051908101604052808460001916815260200183600019168152509080600181540180825580915050906001820390600052602060002090600202016000909192909190915060008201518160000190600019169055602082015181600101906000191690555050505050565b6040805190810160405280600080191681526020016000801916815250905600a165627a7a723058207730e21cef38e82c33b9e1ff23b405b15e3709045d488d9727d0d1d4e1a7f0910029",
  "source": "pragma solidity ^0.4.23;\n\ncontract Toolkit {\n    address public owner;\n    Hash[] public hashes;\n\n    struct Hash {\n        bytes32 part1;\n        bytes32 part2;\n    }\n\n    constructor () public {\n        owner = msg.sender;\n    }\n\n    modifier onlyOwner() {\n        require(owner == msg.sender);\n        _;\n    }\n\n    function add(bytes32 _part1, bytes32 _part2) public onlyOwner {\n        hashes.push(Hash({part1 : _part1, part2 : _part2}));\n    }\n\n    function validate(bytes32 _part1, bytes32 _part2) public view onlyOwner returns (bool)  {\n        for (uint i = 0; i < hashes.length; i++) {\n            Hash memory saved = hashes[i];\n            if (saved.part1 == _part1 && saved.part2 == _part2)\n                return true;\n        }\n        return false;\n    }\n}\n",
  "sourcePath": "/home/mesi/Projects/Vivelab/toolkit/contracts/contracts/Toolkit.sol",
  "compiler": {
    "name": "solc",
    "version": "0.4.24+commit.e67f0147.Emscripten.clang"
  },
  "schemaVersion": "2.0.1",
  "updatedAt": "2018-10-05T17:08:08.041Z"
}